{
  "_format": "hh-sol-artifact-1",
  "contractName": "CrowdWorks",
  "sourceName": "contracts/CrowdWorks.sol",
  "abi": [
    {
      "anonymous": false,
      "inputs": [
        {
          "indexed": false,
          "internalType": "uint256",
          "name": "projectId",
          "type": "uint256"
        },
        {
          "indexed": false,
          "internalType": "address",
          "name": "contributor",
          "type": "address"
        },
        {
          "indexed": false,
          "internalType": "uint256",
          "name": "amount",
          "type": "uint256"
        }
      ],
      "name": "ContributionMade",
      "type": "event"
    },
    {
      "anonymous": false,
      "inputs": [
        {
          "indexed": false,
          "internalType": "uint256",
          "name": "projectId",
          "type": "uint256"
        },
        {
          "indexed": false,
          "internalType": "address",
          "name": "creator",
          "type": "address"
        },
        {
          "indexed": false,
          "internalType": "uint256",
          "name": "amount",
          "type": "uint256"
        }
      ],
      "name": "FundsWithdrawn",
      "type": "event"
    },
    {
      "anonymous": false,
      "inputs": [
        {
          "indexed": false,
          "internalType": "uint256",
          "name": "projectId",
          "type": "uint256"
        },
        {
          "indexed": false,
          "internalType": "string",
          "name": "title",
          "type": "string"
        },
        {
          "indexed": false,
          "internalType": "address",
          "name": "creator",
          "type": "address"
        }
      ],
      "name": "ProjectCreated",
      "type": "event"
    },
    {
      "inputs": [
        {
          "internalType": "uint256",
          "name": "_projectId",
          "type": "uint256"
        }
      ],
      "name": "contribute",
      "outputs": [],
      "stateMutability": "payable",
      "type": "function"
    },
    {
      "inputs": [
        {
          "internalType": "uint256",
          "name": "",
          "type": "uint256"
        },
        {
          "internalType": "address",
          "name": "",
          "type": "address"
        }
      ],
      "name": "contributions",
      "outputs": [
        {
          "internalType": "uint256",
          "name": "",
          "type": "uint256"
        }
      ],
      "stateMutability": "view",
      "type": "function"
    },
    {
      "inputs": [
        {
          "internalType": "string",
          "name": "_title",
          "type": "string"
        },
        {
          "internalType": "string",
          "name": "_description",
          "type": "string"
        },
        {
          "internalType": "string",
          "name": "_imageURI",
          "type": "string"
        },
        {
          "internalType": "uint256",
          "name": "_amountRequired",
          "type": "uint256"
        }
      ],
      "name": "createProject",
      "outputs": [
        {
          "internalType": "uint256",
          "name": "",
          "type": "uint256"
        }
      ],
      "stateMutability": "nonpayable",
      "type": "function"
    },
    {
      "inputs": [],
      "name": "getProjects",
      "outputs": [
        {
          "components": [
            {
              "internalType": "string",
              "name": "title",
              "type": "string"
            },
            {
              "internalType": "string",
              "name": "description",
              "type": "string"
            },
            {
              "internalType": "string",
              "name": "imageURI",
              "type": "string"
            },
            {
              "internalType": "uint256",
              "name": "amountRequired",
              "type": "uint256"
            },
            {
              "internalType": "uint256",
              "name": "amountCollected",
              "type": "uint256"
            },
            {
              "internalType": "address payable",
              "name": "creator",
              "type": "address"
            },
            {
              "internalType": "bool",
              "name": "isFunded",
              "type": "bool"
            }
          ],
          "internalType": "struct CrowdWorks.Project[]",
          "name": "",
          "type": "tuple[]"
        }
      ],
      "stateMutability": "view",
      "type": "function"
    },
    {
      "inputs": [],
      "name": "numberOfProjects",
      "outputs": [
        {
          "internalType": "uint256",
          "name": "",
          "type": "uint256"
        }
      ],
      "stateMutability": "view",
      "type": "function"
    },
    {
      "inputs": [
        {
          "internalType": "uint256",
          "name": "",
          "type": "uint256"
        }
      ],
      "name": "projects",
      "outputs": [
        {
          "internalType": "string",
          "name": "title",
          "type": "string"
        },
        {
          "internalType": "string",
          "name": "description",
          "type": "string"
        },
        {
          "internalType": "string",
          "name": "imageURI",
          "type": "string"
        },
        {
          "internalType": "uint256",
          "name": "amountRequired",
          "type": "uint256"
        },
        {
          "internalType": "uint256",
          "name": "amountCollected",
          "type": "uint256"
        },
        {
          "internalType": "address payable",
          "name": "creator",
          "type": "address"
        },
        {
          "internalType": "bool",
          "name": "isFunded",
          "type": "bool"
        }
      ],
      "stateMutability": "view",
      "type": "function"
    },
    {
      "inputs": [
        {
          "internalType": "uint256",
          "name": "_projectId",
          "type": "uint256"
        }
      ],
      "name": "withdrawFunds",
      "outputs": [],
      "stateMutability": "nonpayable",
      "type": "function"
    }
  ],
  "bytecode": "0x608060405234801561001057600080fd5b506001600081905550611c7d806100286000396000f3fe6080604052600436106100705760003560e01c80633d891f591161004e5780633d891f591461011e578063c1cbbca71461015b578063db5e4c7f14610177578063dcc60128146101a257610070565b8063107046bd14610075578063155dd5ee146100b85780631ca73896146100e1575b600080fd5b34801561008157600080fd5b5061009c60048036038101906100979190610d85565b6101cd565b6040516100af9796959493929190610ead565b60405180910390f35b3480156100c457600080fd5b506100df60048036038101906100da9190610d85565b6103d4565b005b3480156100ed57600080fd5b5061010860048036038101906101039190611066565b610602565b6040516101159190611121565b60405180910390f35b34801561012a57600080fd5b506101456004803603810190610140919061117a565b610777565b6040516101529190611121565b60405180910390f35b61017560048036038101906101709190610d85565b61079c565b005b34801561018357600080fd5b5061018c610992565b6040516101999190611121565b60405180910390f35b3480156101ae57600080fd5b506101b7610998565b6040516101c4919061139d565b60405180910390f35b60026020528060005260406000206000915090508060000180546101f0906113ee565b80601f016020809104026020016040519081016040528092919081815260200182805461021c906113ee565b80156102695780601f1061023e57610100808354040283529160200191610269565b820191906000526020600020905b81548152906001019060200180831161024c57829003601f168201915b50505050509080600101805461027e906113ee565b80601f01602080910402602001604051908101604052809291908181526020018280546102aa906113ee565b80156102f75780601f106102cc576101008083540402835291602001916102f7565b820191906000526020600020905b8154815290600101906020018083116102da57829003601f168201915b50505050509080600201805461030c906113ee565b80601f0160208091040260200160405190810160405280929190818152602001828054610338906113ee565b80156103855780601f1061035a57610100808354040283529160200191610385565b820191906000526020600020905b81548152906001019060200180831161036857829003601f168201915b5050505050908060030154908060040154908060050160009054906101000a900473ffffffffffffffffffffffffffffffffffffffff16908060050160149054906101000a900460ff16905087565b6103dc610c8d565b60006002600083815260200190815260200160002090508060050160009054906101000a900473ffffffffffffffffffffffffffffffffffffffff1673ffffffffffffffffffffffffffffffffffffffff163373ffffffffffffffffffffffffffffffffffffffff1614610485576040517f08c379a000000000000000000000000000000000000000000000000000000000815260040161047c90611491565b60405180910390fd5b8060050160149054906101000a900460ff166104d6576040517f08c379a00000000000000000000000000000000000000000000000000000000081526004016104cd906114fd565b60405180910390fd5b6000816004015490506000826004018190555060008260050160009054906101000a900473ffffffffffffffffffffffffffffffffffffffff1673ffffffffffffffffffffffffffffffffffffffff16826040516105339061154e565b60006040518083038185875af1925050503d8060008114610570576040519150601f19603f3d011682016040523d82523d6000602084013e610575565b606091505b50509050806105b9576040517f08c379a00000000000000000000000000000000000000000000000000000000081526004016105b0906115af565b60405180910390fd5b7ff440aec6b52895984d061d622e6edeba6210f7c3e059be920663140c084560d78433846040516105ec939291906115de565b60405180910390a15050506105ff610cdc565b50565b6000808211610646576040517f08c379a000000000000000000000000000000000000000000000000000000000815260040161063d90611687565b60405180910390fd5b60006002600060015481526020019081526020016000209050858160000190816106709190611853565b50848160010190816106829190611853565b50838160020190816106949190611853565b50828160030181905550338160050160006101000a81548173ffffffffffffffffffffffffffffffffffffffff021916908373ffffffffffffffffffffffffffffffffffffffff16021790555060008160050160146101000a81548160ff0219169083151502179055506001600081548092919061071190611954565b91905055507fc0c54fed07481d0998e1446b2c13759606bf4f26b78306307413ac4c4309aa8260018054610745919061199c565b8733604051610756939291906119d0565b60405180910390a16001805461076c919061199c565b915050949350505050565b6003602052816000526040600020602052806000526040600020600091509150505481565b600034905060006002600084815260200190815260200160002090508060050160149054906101000a900460ff161561080a576040517f08c379a000000000000000000000000000000000000000000000000000000000815260040161080190611a5a565b60405180910390fd5b6000821161084d576040517f08c379a000000000000000000000000000000000000000000000000000000000815260040161084490611ac6565b60405180910390fd5b80600301548282600401546108629190611ae6565b11156108a3576040517f08c379a000000000000000000000000000000000000000000000000000000000815260040161089a90611b8c565b60405180910390fd5b818160040160008282546108b79190611ae6565b92505081905550816003600085815260200190815260200160002060003373ffffffffffffffffffffffffffffffffffffffff1673ffffffffffffffffffffffffffffffffffffffff168152602001908152602001600020600082825461091e9190611ae6565b9250508190555080600301548160040154106109525760018160050160146101000a81548160ff0219169083151502179055505b7f0a4a91237423e0a1766a761c7cb029311d8b95d6b1b81db1b949a70c98b4e08e833384604051610985939291906115de565b60405180910390a1505050565b60015481565b6060600060015467ffffffffffffffff8111156109b8576109b7610f3b565b5b6040519080825280602002602001820160405280156109f157816020015b6109de610ce6565b8152602001906001900390816109d65790505b50905060005b600154811015610c8557600260008281526020019081526020016000206040518060e0016040529081600082018054610a2f906113ee565b80601f0160208091040260200160405190810160405280929190818152602001828054610a5b906113ee565b8015610aa85780601f10610a7d57610100808354040283529160200191610aa8565b820191906000526020600020905b815481529060010190602001808311610a8b57829003601f168201915b50505050508152602001600182018054610ac1906113ee565b80601f0160208091040260200160405190810160405280929190818152602001828054610aed906113ee565b8015610b3a5780601f10610b0f57610100808354040283529160200191610b3a565b820191906000526020600020905b815481529060010190602001808311610b1d57829003601f168201915b50505050508152602001600282018054610b53906113ee565b80601f0160208091040260200160405190810160405280929190818152602001828054610b7f906113ee565b8015610bcc5780601f10610ba157610100808354040283529160200191610bcc565b820191906000526020600020905b815481529060010190602001808311610baf57829003601f168201915b5050505050815260200160038201548152602001600482015481526020016005820160009054906101000a900473ffffffffffffffffffffffffffffffffffffffff1673ffffffffffffffffffffffffffffffffffffffff1673ffffffffffffffffffffffffffffffffffffffff1681526020016005820160149054906101000a900460ff161515151581525050828281518110610c6d57610c6c611bac565b5b602002602001018190525080806001019150506109f7565b508091505090565b600260005403610cd2576040517f08c379a0000000000000000000000000000000000000000000000000000000008152600401610cc990611c27565b60405180910390fd5b6002600081905550565b6001600081905550565b6040518060e001604052806060815260200160608152602001606081526020016000815260200160008152602001600073ffffffffffffffffffffffffffffffffffffffff1681526020016000151581525090565b6000604051905090565b600080fd5b600080fd5b6000819050919050565b610d6281610d4f565b8114610d6d57600080fd5b50565b600081359050610d7f81610d59565b92915050565b600060208284031215610d9b57610d9a610d45565b5b6000610da984828501610d70565b91505092915050565b600081519050919050565b600082825260208201905092915050565b60005b83811015610dec578082015181840152602081019050610dd1565b60008484015250505050565b6000601f19601f8301169050919050565b6000610e1482610db2565b610e1e8185610dbd565b9350610e2e818560208601610dce565b610e3781610df8565b840191505092915050565b610e4b81610d4f565b82525050565b600073ffffffffffffffffffffffffffffffffffffffff82169050919050565b6000610e7c82610e51565b9050919050565b610e8c81610e71565b82525050565b60008115159050919050565b610ea781610e92565b82525050565b600060e0820190508181036000830152610ec7818a610e09565b90508181036020830152610edb8189610e09565b90508181036040830152610eef8188610e09565b9050610efe6060830187610e42565b610f0b6080830186610e42565b610f1860a0830185610e83565b610f2560c0830184610e9e565b98975050505050505050565b600080fd5b600080fd5b7f4e487b7100000000000000000000000000000000000000000000000000000000600052604160045260246000fd5b610f7382610df8565b810181811067ffffffffffffffff82111715610f9257610f91610f3b565b5b80604052505050565b6000610fa5610d3b565b9050610fb18282610f6a565b919050565b600067ffffffffffffffff821115610fd157610fd0610f3b565b5b610fda82610df8565b9050602081019050919050565b82818337600083830152505050565b600061100961100484610fb6565b610f9b565b90508281526020810184848401111561102557611024610f36565b5b611030848285610fe7565b509392505050565b600082601f83011261104d5761104c610f31565b5b813561105d848260208601610ff6565b91505092915050565b600080600080608085870312156110805761107f610d45565b5b600085013567ffffffffffffffff81111561109e5761109d610d4a565b5b6110aa87828801611038565b945050602085013567ffffffffffffffff8111156110cb576110ca610d4a565b5b6110d787828801611038565b935050604085013567ffffffffffffffff8111156110f8576110f7610d4a565b5b61110487828801611038565b925050606061111587828801610d70565b91505092959194509250565b60006020820190506111366000830184610e42565b92915050565b600061114782610e51565b9050919050565b6111578161113c565b811461116257600080fd5b50565b6000813590506111748161114e565b92915050565b6000806040838503121561119157611190610d45565b5b600061119f85828601610d70565b92505060206111b085828601611165565b9150509250929050565b600081519050919050565b600082825260208201905092915050565b6000819050602082019050919050565b600082825260208201905092915050565b600061120282610db2565b61120c81856111e6565b935061121c818560208601610dce565b61122581610df8565b840191505092915050565b61123981610d4f565b82525050565b61124881610e71565b82525050565b61125781610e92565b82525050565b600060e083016000830151848203600086015261127a82826111f7565b9150506020830151848203602086015261129482826111f7565b915050604083015184820360408601526112ae82826111f7565b91505060608301516112c36060860182611230565b5060808301516112d66080860182611230565b5060a08301516112e960a086018261123f565b5060c08301516112fc60c086018261124e565b508091505092915050565b6000611313838361125d565b905092915050565b6000602082019050919050565b6000611333826111ba565b61133d81856111c5565b93508360208202850161134f856111d6565b8060005b8581101561138b578484038952815161136c8582611307565b94506113778361131b565b925060208a01995050600181019050611353565b50829750879550505050505092915050565b600060208201905081810360008301526113b78184611328565b905092915050565b7f4e487b7100000000000000000000000000000000000000000000000000000000600052602260045260246000fd5b6000600282049050600182168061140657607f821691505b602082108103611419576114186113bf565b5b50919050565b7f4f6e6c79207468652070726f6a6563742063726561746f722063616e2077697460008201527f68647261772066756e6473000000000000000000000000000000000000000000602082015250565b600061147b602b83610dbd565b91506114868261141f565b604082019050919050565b600060208201905081810360008301526114aa8161146e565b9050919050565b7f50726f6a656374206973206e6f742066756c6c792066756e6465642079657400600082015250565b60006114e7601f83610dbd565b91506114f2826114b1565b602082019050919050565b60006020820190508181036000830152611516816114da565b9050919050565b600081905092915050565b50565b600061153860008361151d565b915061154382611528565b600082019050919050565b60006115598261152b565b9150819050919050565b7f5472616e73666572206661696c65640000000000000000000000000000000000600082015250565b6000611599600f83610dbd565b91506115a482611563565b602082019050919050565b600060208201905081810360008301526115c88161158c565b9050919050565b6115d88161113c565b82525050565b60006060820190506115f36000830186610e42565b61160060208301856115cf565b61160d6040830184610e42565b949350505050565b7f416d6f756e74207265717569726564206d75737420626520677265617465722060008201527f7468616e20300000000000000000000000000000000000000000000000000000602082015250565b6000611671602683610dbd565b915061167c82611615565b604082019050919050565b600060208201905081810360008301526116a081611664565b9050919050565b60008190508160005260206000209050919050565b60006020601f8301049050919050565b600082821b905092915050565b6000600883026117097fffffffffffffffffffffffffffffffffffffffffffffffffffffffffffffffff826116cc565b61171386836116cc565b95508019841693508086168417925050509392505050565b6000819050919050565b600061175061174b61174684610d4f565b61172b565b610d4f565b9050919050565b6000819050919050565b61176a83611735565b61177e61177682611757565b8484546116d9565b825550505050565b600090565b611793611786565b61179e818484611761565b505050565b5b818110156117c2576117b760008261178b565b6001810190506117a4565b5050565b601f821115611807576117d8816116a7565b6117e1846116bc565b810160208510156117f0578190505b6118046117fc856116bc565b8301826117a3565b50505b505050565b600082821c905092915050565b600061182a6000198460080261180c565b1980831691505092915050565b60006118438383611819565b9150826002028217905092915050565b61185c82610db2565b67ffffffffffffffff81111561187557611874610f3b565b5b61187f82546113ee565b61188a8282856117c6565b600060209050601f8311600181146118bd57600084156118ab578287015190505b6118b58582611837565b86555061191d565b601f1984166118cb866116a7565b60005b828110156118f3578489015182556001820191506020850194506020810190506118ce565b86831015611910578489015161190c601f891682611819565b8355505b6001600288020188555050505b505050505050565b7f4e487b7100000000000000000000000000000000000000000000000000000000600052601160045260246000fd5b600061195f82610d4f565b91507fffffffffffffffffffffffffffffffffffffffffffffffffffffffffffffffff820361199157611990611925565b5b600182019050919050565b60006119a782610d4f565b91506119b283610d4f565b92508282039050818111156119ca576119c9611925565b5b92915050565b60006060820190506119e56000830186610e42565b81810360208301526119f78185610e09565b9050611a0660408301846115cf565b949350505050565b7f50726f6a65637420697320616c72656164792066756e64656400000000000000600082015250565b6000611a44601983610dbd565b9150611a4f82611a0e565b602082019050919050565b60006020820190508181036000830152611a7381611a37565b9050919050565b7f416d6f756e74206d7573742062652067726561746572207468616e2030000000600082015250565b6000611ab0601d83610dbd565b9150611abb82611a7a565b602082019050919050565b60006020820190508181036000830152611adf81611aa3565b9050919050565b6000611af182610d4f565b9150611afc83610d4f565b9250828201905080821115611b1457611b13611925565b5b92915050565b7f436f6e747269627574696f6e20657863656564732074686520616d6f756e742060008201527f7265717569726564000000000000000000000000000000000000000000000000602082015250565b6000611b76602883610dbd565b9150611b8182611b1a565b604082019050919050565b60006020820190508181036000830152611ba581611b69565b9050919050565b7f4e487b7100000000000000000000000000000000000000000000000000000000600052603260045260246000fd5b7f5265656e7472616e637947756172643a207265656e7472616e742063616c6c00600082015250565b6000611c11601f83610dbd565b9150611c1c82611bdb565b602082019050919050565b60006020820190508181036000830152611c4081611c04565b905091905056fea2646970667358221220ed2551930b94a4518311aef7f34a666254351a0645ff4865037e47216692f5df64736f6c63430008180033",
  "linkReferences": {},
  "deployedLinkReferences": {}
}